:100000000C942A001895000018950000189500001F
:10001000189500001895000018950000189500002C
:10002000189500001895000018950000189500001C
:10003000189500001895000018950000189500000C
:1000400018950000189500001895000018950000FC
:10005000189500008FE58DBFC8E3E0E24E2E84E0E6
:100060008EBFD4E0F4E05F2EA89584B7082E877F7A
:1000700084BF88E1992781BD91BDEEEFF3E0A0E652
:10008000B0E088278D933197E9F783E389B980E061
:1000900080BD88E18AB966248FEF84BBD098D89A56
:1000A00070EC75BBD098A1E6B0E09C9197FF04C0BE
:1000B000C89B10C09F779C93C8990CC089E19F93FF
:1000C00099270E94D9009F91C89904C090689C9379
:1000D0000E946E000C945200F894FFCF00916000D3
:1000E000003011F00C94780070EC75BB0C94BE00DD
:1000F000013011F00C94800079EF75BB0C94BE00B8
:10010000023011F00C94880074EA75BB0C94BE00A8
:10011000033011F00C94900070EB75BB0C94BE0092
:10012000043011F00C94980079E975BB0C94BE0072
:10013000053011F00C94A00072E975BB0C94BE0060
:10014000063011F00C94A80072E875BB0C94BE0048
:10015000073011F00C94B00078EF75BB0C94BE0022
:10016000083011F00C94B80070E875BB0C94BE0018
:10017000093011F00C94BE0070E975BBA0E6B0E048
:100180008C918F5F8C9300916000093018F011F012
:100190000C94CC000C94CF0080E080936000089514
:1001A0003197F1F70895689462F80895E89462F839
:1001B0000895EF93FF93EE27E82BE92B31F0E0ED64
:1001C000F7E03197F1F70197D1F7FF91EF9108959B
:00000001FF
