:100000000C942A001895000018950000189500001F
:10001000189500001895000018950000189500002C
:10002000189500001895000018950000189500001C
:10003000189500001895000018950000189500000C
:1000400018950000189500000C94560018950000B3
:10005000189500008FE58DBFC8E3E0E24E2E88E0E2
:100060008EBFD8E0F8E05F2EA89584B7082E877F72
:1000700084BF88E1992781BD91BDEEEFF7E0A0E64E
:10008000B0E088278D933197E9F783E389B980E061
:1000900080BD88E18AB9662470E078B9439A789483
:1000A000479800000C945100F894FFCF0F921F92D4
:1000B0002F923F924F925F927F92AF92BF920F9397
:1000C0001F932F933F934F935F936F937F938F93E0
:1000D0009F93AF93BF93CF93DF93EF93FF938FB72C
:1000E0008F93A0E6B0E08C918F5F8C93E4E5F2E013
:1000F0000E94A800A8E0B8E0E0E6F0E00E94E0007E
:100100000E94A0000E94AF008F918FBFFF91EF91DE
:10011000DF91CF91BF91AF919F918F917F916F911F
:100120005F914F913F912F911F910F91BF90AF9091
:100130007F905F904F903F902F901F900F90189559
:10014000A8E0B8E08D91882311F00CD0FBCF089582
:100150000E94BF00802D11F005D0FACF08958DE0E8
:1001600001D08AE05D9BFECF8CB908953197F1F7FD
:100170000895689462F80895E89462F80895C8951F
:10018000319600200895000F111F221F331F08957C
:1001900000951095209530950F5F1F4F2F4F3F4FC3
:1001A0000895019110810EC001911191219130812A
:1001B0000BC00191108117FF05C03FEF2FEF04C066
:1001C000008111272227332737FF03C0E1DF8DE2AB
:1001D0008D93CF93DF93CF92DF92EF92AA24BB242B
:1001E000CC24DD24EE2440E2CAE0DD2755E093E391
:1001F0008881890F87FD9F7083FD907F891B89937C
:100200005A95A9F7C0DFAA1CBB1CCC1CDD1CEE1C38
:100210004A9551F7E894EFE0FF2782910ED0EB303A
:10022000E0F71EF068948A2D0CD088278D93EF900C
:10023000DF90CF90DF91CF910895982F829501D0D4
:10024000892F8F70805D26F0803309F408956894BB
:100250008D930895416E616C6F6720636F6E766554
:0E026000727420696E746572666163652000B9
:00000001FF
