:100000000C942A001895000018950000189500001F
:10001000189500001895000018950000189500002C
:10002000189500001895000018950000189500001C
:10003000189500001895000018950000189500000C
:1000400018950000189500001895000018950000FC
:10005000189500008FE58DBFC8E3E0E24E2E88E0E2
:100060008EBFD8E0F8E05F2EA89584B7082E877F72
:1000700084BF88E1992781BD91BDEEEFF7E0A0E64E
:10008000B0E088278D933197E9F783E389B980E061
:1000900080BD88E18AB966248FEF84BB7FEE75BB93
:1000A0008E98969A8F98979A8E98A3E6B0E09C9136
:1000B00097FF04C0869B10C09F779C9386990CC0C5
:1000C00089E19F9399270E94DF009F91869904C040
:1000D00090689C930E948A008F98A3E6B0E09C9160
:1000E00096FF04C0879B10C09F7B9C9387990CC090
:1000F00089E19F9399270E94DF009F91879904C00F
:1001000090649C930E94A500009160000A3011F059
:100110000C94540091E085B3BB27A8E10E94F6003F
:1001200085BBA1E6B0E08C918F5F8C93E2EDF2E0AD
:100130000E94C800A8E0B8E0E1E6F0E00E941F01DC
:100140000E94C0000E94CF00089591E085B3BB27B4
:10015000A8E10E94EE0085BBA2E6B0E08C918F5F23
:100160008C93E8EEF2E00E94C800A8E0B8E0E2E676
:10017000F0E00E941F010E94C0000E94CF0008957D
:10018000A8E0B8E08D91882311F00CD0FBCF089542
:100190000E94FE00802D11F005D0FACF08958DE069
:1001A00001D08AE05D9BFECF8CB908953197F1F7BD
:1001B0000895689462F80895E89462F80895EF93BA
:1001C000FF93EE27E82BE92B31F0E0EDF7E03197D4
:1001D000F1F70197D1F7FF91EF910895903029F051
:1001E0008C91880F9A95E9F78C930895903029F0B7
:1001F0008C9186959A95E9F78C930895C8953196D8
:1002000000200895000F111F221F331F089500952D
:100210001095209530950F5F1F4F2F4F3F4F08953A
:10022000019110810EC001911191219130810BC07B
:100230000191108117FF05C03FEF2FEF04C000812F
:1002400011272227332737FF03C0E1DF8DE28D938B
:10025000CF93DF93CF92DF92EF92AA24BB24CC24DA
:10026000DD24EE2440E2CAE0DD2755E093E38881F7
:10027000890F87FD9F7083FD907F891B89935A9515
:10028000A9F7C0DFAA1CBB1CCC1CDD1CEE1C4A95C8
:1002900051F7E894EFE0FF2782910ED0EB30E0F7C2
:1002A0001EF068948A2D0CD088278D93EF90DF90F4
:1002B000CF90DF91CF910895982F829501D0892F0B
:1002C0008F70805D26F0803309F4089568948D93D3
:1002D0000895507265737320427574746F6E205266
:1002E000696768742020000050726573732042753E
:0E02F00074746F6E204C656674202020000030
:00000001FF
