:100000000C942A001895000018950000189500001F
:10001000189500001895000018950000189500002C
:10002000189500001895000018950000189500001C
:10003000189500001895000018950000189500000C
:1000400018950000189500001895000018950000FC
:10005000189500008FE58DBFC8E3E0E24E2E88E0E2
:100060008EBFD8E0F8E05F2EA89584B7082E877F72
:1000700084BF88E1992781BD91BDEEEFF7E0A0E64E
:10008000B0E088278D933197E9F786E089B980E061
:1000900080BD88E18AB96624BB9A83E683BF73B7C3
:1000A000786073BF73B7706473BFD098D89AD198D3
:1000B000D99AC8990C9466000CB70F3F10F00C94B5
:1000C00064008CB783958CBF0E947A00C9990C9408
:1000D00076000CB7003018F011F00C9471000C94FD
:1000E00074008CB78A958CBF0E947A000C945900DA
:1000F000F894FFCFECEAF7E00E94C703DCB6EE24E9
:10010000FF2400270E942E030E946D03EDE0F0E023
:10011000A0E6B0E00E94D003E0EBF7E00E94C70346
:10012000E0E6F0E00E941C030E942D01EDE0F0E00B
:10013000A0E6B0E00E94D003E8EBF7E00E94F100F7
:10014000A8E0B8E0E0E6F0E0552742E00E94830135
:100150000E94E900E0ECF7E00E94F1000E94F80044
:10016000E4EBF7E00E94C703E0E6F0E00E941C0326
:100170000E942D01EDE0F0E0A4E6B0E00E94D00383
:10018000E0EBF7E00E94C703E4E6F0E00E941C0306
:100190000E946D03EDE0F0E0A4E6B0E00E94D00321
:1001A000E2ECF7E00E94F100A8E0B8E0E4E6F0E05D
:1001B000552742E00E9483010E94E900EAECF7E043
:1001C0000E94F1000E94F80082E390E00E94080182
:1001D0000895A8E0B8E08D91882311F00CD0FBCFF2
:1001E00008950E94C303802D11F005D0FACF089521
:1001F0008DE001D08AE05D9BFECF8CB908953197E8
:10020000F1F70895689462F80895E89462F8089503
:10021000EF93FF93EE27E82BE92B31F0EAEFF0E0C4
:100220003197F1F70197D1F7FF91EF9108958F93EF
:100230009F93D216E306F4060FB680E890E8802775
:1002400095270FBE89070FB6892B87FD02C091E065
:1002500009260FBE9F918F91089543D0A9F0503881
:1002600099F01627050F1BF40AF064C26AC20395C1
:100270001BD0FF202AF0BB0CDD1CEE1CFF1C02C0B3
:1002800003951BF003D0E2C15CC254C2B7FE0895CF
:1002900090E8B91611F4D0FE08959FEFD91AE90A33
:1002A000F90A09F403950895FF92EF928D2DFF242A
:1002B000EE24DD24BB2493E0849F1001829FB00CC8
:1002C000D11CE21CF31C839FD00CE11C2224F21CE5
:1002D0009A9531F0BD2CDE2CEF2CFF248F91ECCFC2
:1002E0000895652F90E8440F551F5927990F47959A
:1002F0006078102F90E8FF0C001F0927990FF794E2
:1003000010780038089598D1F4DF17FF03C08DE20C
:100310008D931127003821F4E0EDF5E00C941603DD
:100320000F3741F4FF2019F4E6ECF5E0F7CFE2ECEB
:10033000F5E0F4CF4A934A934A935A93BA93AA9317
:10034000BB270F5FE2F4BB27802F0A957FD18D3E3C
:1003500080F4E0E2F6E0A3E00E94C70368DFBB1F81
:10036000B0FF05C070970E94C70377DF3C96AA953F
:1003700099F7ECE1F6E00E94C7036FDF1FC0093078
:1003800038F1033158F10A3130F418E08BE192E989
:10039000E4EDF5E02AC00A9559D1E4E1F6E0BFEFBB
:1003A000A3E00E94C70343DFBB1FB0FD05C0389622
:1003B0000E94C70352DF3C97AA9599F7B095BB0FEF
:1003C00098DF039513E08AEF99E0F816090740F4E7
:1003D00013E08BE094E0E8EEF5E007C016E001C022
:1003E000B39583E194E2ECEDF5E06A81BF3F19F447
:1003F000BB2711276260BD836A831C83A881B981F2
:1004000060E36D93A883B9836D93081B0195AA24BB
:10041000BB246A816A7F002339F0F694E794D7946D
:10042000B794A7940A95F7CF19E000270E94C70355
:10043000CC248FEF74E0AC14B206D306E406F506C4
:1004400030F0AC18B20AD30AE40AF50A21F1881F89
:100450007A9531F05695479537952795C794EBCF08
:10046000809522D041F0969508F7FE2CED2CDB2CE0
:10047000BA2CAA24DBCF25D05D813C812B8170D0A2
:10048000277021F02BD06CD0E8F301C03CD04CD0C9
:1004900078D0269608958894881F7A95E9F78095F4
:1004A00003D049F38827FCCF806360FD06C080330A
:1004B00011F0616002C0039561FD8D9360FD1A9596
:1004C000089599278E919C9385338E9108F083959A
:1004D0008A3308F080E38C93C0F70895732F720F6E
:1004E00061FF701B0AD01296785019F050F38E936A
:1004F00080E38E937150EAF70895A881B981A70F20
:100500008827B81F089579E061FD700FF6DF48E095
:10051000431B400F8AF381F399274A9569F38E9123
:10052000803351F79C93F9CF732F61FF701B739544
:10053000A881B981EA2FFB2F11978191803361FF48
:1005400009F08D937A9511F48EE28D938191882331
:10055000C1F7772311F480E38D9388278C93089556
:10056000889462FD0895002359F4A881B9818C9183
:10057000803331F0552321F0539533506460089453
:1005800008955523E9F085E48D931AF48DE28D9357
:100590005195652F660F560F5A3010F060E503D065
:1005A00068E001D0DACF8FEF74E0561708F0561BE1
:1005B000881F7A9511F06695F8CF809580638D93AA
:1005C00008954E414E00496E66696E697479000067
:1005D000302E300000404B4C0020A107000050C3DB
:1005E000000088130000F401000000320000000544
:1005F00000008000CCCCCC0C14AE47019CC4200081
:10060000DC460300E353000063080000D70000004D
:10061000150000001CC25367A5D468530024744918
:1006200015BE9A17CCBC8C2BBD3786350E94C303F0
:100630000D920020D9F70895D190E190F1900191A9
:10064000089521913191419151910895FF0C90E8C5
:100650009027110F9795F794092F0895102FBD2C0F
:10066000DE2CEF2CF02E11234AF4B094D094E094B9
:10067000F0949FEFB91AD90AE90AF90A0EE1FF20AE
:1006800039F4FE2CED2CDB2CBB240850C2F759C0EA
:1006900032F00A95BB0CDD1CEE1CFF1CF9CF0E944A
:1006A0004601D4CF502F2D2D3E2D4F2D612F089573
:1006B0002DEC3CEC4CEC5DE366270FC0BDDFF2DFB8
:1006C000DD24EE2490E8F92E0FE307C0BADF05C061
:1006D0002227332740E251E46627552351F10023B6
:1006E00081F1FFDD71F11627005850580894050B71
:1006F00018F407FD03C025C007FD23C046953795B4
:100700002795F694E794D79422D0FF202AF0DD0CA9
:10071000EE1CFF1C015073F09D2D969548F0DD20D6
:100720003AF4EE202AF491E0D90E9927E91EF91E39
:100730008DCF07C09FE7092FF92A9FEFD92EE92E09
:100740000895DD24EE24FF240027112708959F92A9
:100750009924AA24BB2488E1D216E306F40628F0E3
:10076000D21AE30AF40A089401C08894991CAA1CBE
:10077000BB1CDD0CEE1CFF1C8A9571F7D92CEA2CF2
:10078000FB2C9F900895C895319600200895FBDFBB
:10079000202DF9DF302DF7DF402DF5DF502D0895A6
:1007A00094E081918D939A95E1F7089500007F433D
:1007B0000000C8420000A04044757479203D20002C
:0C07C0002500566F7574203D2000560087
:00000001FF
