:100000000C942A001895000018950000189500001F
:10001000189500001895000018950000189500002C
:10002000189500001895000018950000189500001C
:10003000189500001895000018950000189500000C
:1000400018950000189500001895000018950000FC
:10005000189500008FE58DBFC8E3E0E24E2E88E0E2
:100060008EBFD8E0F8E05F2EA89584B7082E877F72
:1000700084BF88E1992781BD91BDEEEFF7E0A0E64E
:10008000B0E088278D933197E9F783E389B980E061
:1000900080BD88E18AB9662486E083BFB898C09A9B
:1000A000882783BF70E072BF86E083BF88EE93E04D
:1000B0000E949100882783BFE6E1F2E00E947A0067
:1000C000A8E0B8E0E2E5F0E00E94C1000E94720002
:1000D000E2E2F2E00E947A000E9481000C94520059
:1000E000F894FFCFA8E0B8E08D91882311F00CD0F0
:1000F000FBCF08950E94A000802D11F005D0FACF0B
:1001000008958DE001D08AE05D9BFECF8CB9089503
:100110003197F1F70895689462F80895E89462F8C9
:100120000895EF93FF93EE27E82BE92B31F0E0EDF4
:10013000F7E03197F1F70197D1F7FF91EF9108952B
:10014000C895319600200895000F111F221F331FFC
:10015000089500951095209530950F5F1F4F2F4FF4
:100160003F4F0895019110810EC00191119121918D
:1001700030810BC00191108117FF05C03FEF2FEFB9
:1001800004C0008111272227332737FF03C0E1DF96
:100190008DE28D93CF93DF93CF92DF92EF92AA24DB
:1001A000BB24CC24DD24EE2440E2CAE0DD2755E068
:1001B00093E38881890F87FD9F7083FD907F891B62
:1001C00089935A95A9F7C0DFAA1CBB1CCC1CDD1C67
:1001D000EE1C4A9551F7E894EFE0FF2782910ED08C
:1001E000EB30E0F71EF068948A2D0CD088278D93B1
:1001F000EF90DF90CF90DF91CF910895982F829567
:1002000001D0892F8F70805D26F0803309F4089526
:1002100068948D930895436F756E746572303A20BB
:060220000000485A000036
:00000001FF
