:100000000C942A001895000018950000189500001F
:10001000189500001895000018950000189500002C
:10002000189500001895000018950000189500001C
:10003000189500001895000018950000189500000C
:1000400018950000189500001895000018950000FC
:10005000189500008FE58DBFC8E3E0E24E2E88E0E2
:100060008EBFD8E0F8E05F2EA89584B7082E877F72
:1000700084BF88E1992781BD91BDEEEFF7E0A0E64E
:10008000B0E088278D933197E9F76624D09AA09A3B
:10009000D89AA89884EF91E00E946300D898A89A13
:1000A0008BE292E00E946300009160000A3011F040
:1000B0000C9448003197F1F70895689462F8089518
:1000C000E89462F80895EF93FF93EE27E82BE92B6D
:1000D00031F0E0EDF7E03197F1F70197D1F7FF91BB
:0400E000EF910895FF
:00000001FF
