:100000000C942A001895000018950000189500001F
:10001000189500001895000018950000189500002C
:10002000189500001895000018950000189500001C
:10003000189500001895000018950000189500000C
:1000400018950000189500001895000018950000FC
:10005000189500008FE58DBFC8E3E0E24E2E88E0E2
:100060008EBFD8E0F8E05F2EA89584B7082E877F72
:1000700084BF88E1992781BD91BDEEEFF7E0A0E64E
:10008000B0E088278D933197E9F786E089B980E061
:1000900080BD88E18AB9662489E083BF72E37CBFB2
:1000A00073B77F7D73BF73B7706173BF79B77260C9
:1000B00079BF7894BB9A0C945B00F894FFCF31978A
:1000C000F1F70895689462F80895E89462F8089545
:00000001FF
