:100000000C942A001895000018950000189500001F
:10001000189500001895000018950000189500002C
:100020001895000018950000189500000C949D008C
:10003000189500001895000018950000189500000C
:1000400018950000189500001895000018950000FC
:10005000189500008FE58DBFC8E3E0E24E2E88E0E2
:100060008EBFD8E0F8E05F2EA89584B7082E877F72
:1000700084BF88E1992781BD91BDEEEFF7E0A0E64E
:10008000B0E088278D933197E9F783E389B980E061
:1000900080BD88E18AB9662486E083BF79B7716044
:1000A00079BF789486E083BF88EE93E00E94FE00DB
:1000B000882783BFA0E6B0E00D911C91222733274B
:1000C00040E051E060E070E00E940D01A2E6B0E087
:1000D0000D931D932D933D93A2E6B0E00D911D91DC
:1000E0002D913C9182B7482F5527662777270E948C
:1000F0003401A2E6B0E00D931D932D933D93E0E40F
:10010000F3E00E94E700A8E0B8E0E2E6F0E00E9439
:100110004A010E94DF00ECE4F3E00E94E7000E9445
:10012000EE0070E072BF80E090E0A0E6B0E08D935A
:100130009C930C945200F894FFCF0F921F922F9231
:100140003F924F925F927F92AF92BF920F931F9315
:100150002F933F934F935F936F937F938F939F93CF
:10016000AF93BF93CF93DF93EF93FF938FB78F93AB
:10017000A0E6B0E00E94D8008F918FBFFF91EF9171
:10018000DF91CF91BF91AF919F918F917F916F91AF
:100190005F914F913F912F911F910F91BF90AF9021
:1001A0007F905F904F903F902F901F900F901895E9
:1001B000ED91FC91EF5FFF4FFC93EE930895A8E063
:1001C000B8E08D91882311F00CD0FBCF08950E94E8
:1001D0003001802D11F005D0FACF08958DE001D0C7
:1001E0008AE05D9BFECF8CB908953197F1F70895B1
:1001F000689462F80895E89462F80895EF93FF9385
:10020000EE27E82BE92B31F0E0EDF7E03197F1F73D
:100210000197D1F7FF91EF9108950F921F922F92BE
:10022000C801D901489F80014A9F90014B9F202C13
:10023000499F100D211D321D5A9F202C589F100DD3
:10024000211D321D599F200D311D689F200D311D2C
:10025000699F300D789F300D2F901F900F9008955B
:10026000C895319600200895040F151F261F371FCB
:100270000895000F111F221F331F08950095109538
:10028000209530950F5F1F4F2F4F3F4F08950191DD
:1002900010810EC001911191219130810BC001910B
:1002A000108117FF05C03FEF2FEF04C00081112719
:1002B0002227332737FF03C0E1DF8DE28D93CF93F1
:1002C000DF93CF92DF92EF92AA24BB24CC24DD24CB
:1002D000EE2440E2CAE0DD2755E093E38881890FF0
:1002E00087FD9F7083FD907F891B89935A95A9F79D
:1002F000C0DFAA1CBB1CCC1CDD1CEE1C4A9551F7B0
:10030000E894EFE0FF2782910ED0EB30E0F71EF08B
:1003100068948A2D0CD088278D93EF90DF90CF9032
:10032000DF91CF910895982F829501D0892F8F70FA
:10033000805D26F0803309F4089568948D930895C4
:100340004672657175656E63793D000020485A00FC
:00000001FF
