:100000000C942A001895000018950000189500001F
:10001000189500001895000018950000189500002C
:10002000189500001895000018950000189500001C
:10003000189500001895000018950000189500000C
:1000400018950000189500001895000018950000FC
:10005000189500008FE58DBFC8E3E0E24E2E84E0E6
:100060008EBFD4E0F4E05F2EA89584B7082E877F7A
:1000700084BF88E1992781BD91BDEEEFF3E0A0E652
:10008000B0E088278D933197E9F783E389B980E061
:1000900080BD88E18AB966248FEF84BBD098D89A56
:1000A00070EC75BBD098A1E6B0E09C9197FF04C0BE
:1000B000C89B10C09F779C93C8990CC089E19F93FF
:1000C00099270E94A7009F91C89904C090689C93AB
:1000D0000E946E000C945200F894FFCFE4E1F1E02E
:1000E000A0E6B0E08C919927A5E3B0E00E94C6009D
:1000F000A0E6B0E08C918F5F8C9300916000093096
:1001000018F011F00C9486000C94890080E0809324
:1001100060000895C0F9A4B0999282F88090C0F967
:10012000A4B0999282F88090C0F9A4B0999282F814
:100130008090C0F9A4B0999282F880903197F1F73D
:100140000895689462F80895E89462F80895EF932A
:10015000FF93EE27E82BE92B31F0E0EDF7E0319744
:10016000F1F70197D1F7FF91EF910895C895319676
:100170000020089591E005C092E003C094E001C022
:1001800098E0F4DF0D929A95E1F70895E80FF91FD2
:02019000F1CFAD
:00000001FF
