:100000000C942A0018950000189500000C947400B8
:10001000189500001895000018950000189500002C
:10002000189500001895000018950000189500001C
:10003000189500001895000018950000189500000C
:1000400018950000189500001895000018950000FC
:10005000189500008FE58DBFC8E3E0E24E2E88E0E2
:100060008EBFD8E0F8E05F2EA89584B7082E877F72
:1000700084BF88E1992781BD91BDEEEFF7E0A0E64E
:10008000B0E088278D933197E9F783E389B980E061
:1000900080BD88E18AB966248FEF84BB8FEF81BB76
:1000A00084B78F7B84BF7BB770627BBFC29A789422
:1000B00070EC72BB70EC75BB80E0809362000091C5
:1000C0006200093018F011F00C9470000E94740066
:1000D000A2E6B0E08C918F5F8C9310F40C945F00DB
:1000E0000C945C00F894FFCF0F921F922F923F92D6
:1000F0004F925F927F92AF92BF920F931F932F9375
:100100003F934F935F936F937F938F939F93AF939F
:10011000BF93CF93DF93EF93FF938FB78F93EAEC67
:10012000F1E0A0E6B0E08C919927A5E3B0E00E9451
:100130001801EAECF1E0A1E6B0E08C919927A2E386
:10014000B0E00E941801A0E6B0E08C918F5F8C9324
:1001500000916000093018F011F00C94B1000C947B
:10016000C50080E080936000A1E6B0E08C918F5FD5
:100170008C9300916100093018F011F00C94C200CA
:100180000C94C50080E080936100E1E0F0E00E9403
:10019000EA008F918FBFFF91EF91DF91CF91BF91D7
:1001A000AF919F918F917F916F915F914F913F910F
:1001B0002F911F910F91BF90AF907F905F904F90C4
:1001C0003F902F901F900F901895C0F9A4B099926E
:1001D00082F8809088EE93E00CD03197D9F708959B
:1001E0003197F1F70895689462F80895E89462F8F9
:1001F0000895EF93FF93EE27E82BE92B31F0E0ED24
:10020000F7E03197F1F70197D1F7FF91EF9108955A
:10021000C89531960020089591E005C092E003C092
:1002200094E001C098E0F4DF0D929A95E1F708950B
:06023000E80FF91FF1CFF9
:00000001FF
