:100000000C942A001895000018950000189500001F
:10001000189500001895000018950000189500002C
:10002000189500001895000018950000189500001C
:10003000189500001895000018950000189500000C
:1000400018950000189500001895000018950000FC
:10005000189500008FE58DBFC8E3E0E24E2E88E0E2
:100060008EBFD8E0F8E05F2EA89584B7082E877F72
:1000700084BF88E1992781BD91BDEEEFF7E0A0E64E
:10008000B0E088278D933197E9F783E389B980E061
:1000900080BD88E18AB9662483E384BBAE9AAF9AB7
:1000A000D09AB898C09AA89AA99AA698A4E6B0E05F
:1000B0009C9197FF04C09E9B10C09F779C939E9934
:1000C0000CC089E19F9399270E940A019F919E99F4
:1000D00004C090689C930E94A300A798A4E6B0E097
:1000E0009C9196FF04C09F9B10C09F7B9C939F99FF
:1000F0000CC089E19F9399270E940A019F919F99C3
:1001000004C090649C930E94BB00B898A4E6B0E041
:100110009C9195FF04C0B09B10C09F7D9C93B099AB
:100120000CC089E19F9399270E940A019F91B09981
:1001300004C090629C930E94D300009160000A303A
:1001400011F00C945500A1E6B0E08C918F5F8C9378
:1001500085B391E0892785BBE8E0F3E00E94F300D6
:10016000A8E0B8E0E1E6F0E00E943A010E94EB006E
:100170000E94FA000895A2E6B0E08C918F5F8C9304
:1001800085B392E0892785BBE6E1F3E00E94F300A6
:10019000A8E0B8E0E2E6F0E00E943A010E94EB003D
:1001A0000E94FA000895A3E6B0E08C918F5F8C93D3
:1001B0008BB391E089278BBBE4E2F3E00E94F3006C
:1001C000A8E0B8E0E3E6F0E00E943A010E94EB000C
:1001D0000E94FA000895A8E0B8E08D91882311F0FC
:1001E0000CD0FBCF08950E941901802D11F005D08D
:1001F000FACF08958DE001D08AE05D9BFECF8CB9E7
:1002000008953197F1F70895689462F80895E89495
:1002100062F80895EF93FF93EE27E82BE92B31F076
:10022000E0EDF7E03197F1F70197D1F7FF91EF910A
:100230000895C895319600200895000F111F221FC0
:10024000331F089500951095209530950F5F1F4F2F
:100250002F4F3F4F0895019110810EC001911191D0
:10026000219130810BC00191108117FF05C03FEF34
:100270002FEF04C0008111272227332737FF03C047
:10028000E1DF8DE28D93CF93DF93CF92DF92EF92F8
:10029000AA24BB24CC24DD24EE2440E2CAE0DD27DE
:1002A00055E093E38881890F87FD9F7083FD907FE0
:1002B000891B89935A95A9F7C0DFAA1CBB1CCC1CCB
:1002C000DD1CEE1C4A9551F7E894EFE0FF27829180
:1002D0000ED0EB30E0F71EF068948A2D0CD0882702
:1002E0008D93EF90DF90CF90DF91CF910895982F6D
:1002F000829501D0892F8F70805D26F0803309F4BC
:10030000089568948D93089553775F3120707265D6
:1003100073736520200053775F32207072657373AA
:100320006520200053775F332070726573736520FA
:020330002000AB
:00000001FF
