:100000000C942A001895000018950000189500001F
:10001000189500001895000018950000189500002C
:10002000189500001895000018950000189500001C
:10003000189500001895000018950000189500000C
:1000400018950000189500001895000018950000FC
:10005000189500008FE58DBFC8E3E0E24E2E88E0E2
:100060008EBFD8E0F8E05F2EA89584B7082E877F72
:1000700084BF88E1992781BD91BDEEEFF7E0A0E64E
:10008000B0E088278D933197E9F783E389B980E061
:1000900080BD88E18AB9662486E083BF86E083BF9D
:1000A00042B700916000041711F40C946500A0E6BB
:1000B000B0E082B78C93A8E0B8E0E2E5F0E00E94FF
:1000C000B6000E9476000E948500A8E5B0E00C9181
:1000D00000FB16F00C945000882783BFE0E0F2E0AC
:1000E0000E947E000E948500F894FFCFA8E0B8E04F
:1000F0008D91882311F00CD0FBCF08950E949500BC
:10010000802D11F005D0FACF08958DE001D08AE05E
:100110005D9BFECF8CB908953197F1F708956894EF
:1001200062F80895E89462F80895C8953196002021
:100130000895000F111F221F331F08950095109579
:10014000209530950F5F1F4F2F4F3F4F089501911E
:1001500010810EC001911191219130810BC001914C
:10016000108117FF05C03FEF2FEF04C0008111275A
:100170002227332737FF03C0E1DF8DE28D93CF9332
:10018000DF93CF92DF92EF92AA24BB24CC24DD240C
:10019000EE2440E2CAE0DD2755E093E38881890F31
:1001A00087FD9F7083FD907F891B89935A95A9F7DE
:1001B000C0DFAA1CBB1CCC1CDD1CEE1C4A9551F7F1
:1001C000E894EFE0FF2782910ED0EB30E0F71EF0CD
:1001D00068948A2D0CD088278D93EF90DF90CF9074
:1001E000DF91CF910895982F829501D0892F8F703C
:1001F000805D26F0803309F4089568948D93089506
:04020000454E440023
:00000001FF
