:100000000C942A001895000018950000189500001F
:10001000189500001895000018950000189500002C
:10002000189500001895000018950000189500001C
:10003000189500001895000018950000189500000C
:1000400018950000189500001895000018950000FC
:10005000189500008FE58DBFC8E3E0E24E2E88E0E2
:100060008EBFD8E0F8E05F2EA89584B7082E877F72
:1000700084BF88E1992781BD91BDEEEFF7E0A0E64E
:10008000B0E088278D933197E9F786E089B980E061
:1000900080BD88E18AB966248DE083BF74EF7CBFA0
:1000A0008DE083BFD09AA8E5B0E00C9101FB16F07B
:1000B0000C94620072E078BF70E072BF8BB391E085
:1000C00089278BBB0C945300F894FFCF3197F1F73D
:0E00D0000895689462F80895E89462F808951F
:00000001FF
