:100000000C942A001895000018950000189500001F
:10001000189500001895000018950000189500002C
:10002000189500001895000018950000189500001C
:10003000189500001895000018950000189500000C
:1000400018950000189500001895000018950000FC
:10005000189500008FE58DBFC8E3E0E24E2E88E0E2
:100060008EBFD8E0F8E05F2EA89584B7082E877F72
:1000700084BF88E1992781BD91BDEEEFF7E0A0E64E
:10008000B0E088278D933197E9F783E389B980E061
:1000900080BD88E18AB90E947D0066240E945600D6
:1000A000009160000A3011F00C944E008FE713E0CD
:1000B0000E947400EAE7F1E00E946300E5E0F0E0EE
:1000C0000E94770008950E94B900802D11F025D07C
:1000D000FACF08958FE7213039F08FEB223021F0ED
:1000E0008FE8233009F08FEC810F0C949B0088EE91
:1000F00093E030D03197D9F708958AEF90E00E94CD
:10010000AA008FEF81BBA79AA69A88E314D013D0D8
:100110008EE011D086E00FD00895AE9A82BBAF9AE0
:10012000EF93FF93E4ECF0E00E949E00FF91EF91CB
:10013000AF980DD00895AE98F1CF08953197F1F7AB
:100140000895689462F80895E89462F8089581E04B
:1001500090E000C0EF93FF93EE27E82BE92B31F0FE
:10016000E0EDF7E03197F1F70197D1F7FF91EF91CB
:100170000895C89531960020089548616C6C6F0011
:00000001FF
