:100000000C942A001895000018950000189500001F
:10001000189500001895000018950000189500002C
:100020001895000018950000189500000C945900D0
:10003000189500001895000018950000189500000C
:1000400018950000189500001895000018950000FC
:10005000189500008FE58DBFC8E3E0E24E2E88E0E2
:100060008EBFD8E0F8E05F2EA89584B7082E877F72
:1000700084BF88E1992781BD91BDEEEFF7E0A0E64E
:10008000B0E088278D933197E9F786E089B980E061
:1000900080BD88E18AB9662485E083BF79B7716045
:1000A00079BF789485E083BFD09A0C945500F8947A
:1000B000FFCF0F921F922F923F924F925F927F92AB
:1000C000AF92BF920F931F932F933F934F935F93E2
:1000D0006F937F938F939F93AF93BF93CF93DF9350
:1000E000EF93FF938FB78F938BB391E089278BBBEF
:1000F0008F918FBFFF91EF91DF91CF91BF91AF9122
:100100009F918F917F916F915F914F913F912F912F
:100110001F910F91BF90AF907F905F904F903F9055
:100120002F901F900F9018953197F1F708956894CC
:0A01300062F80895E89462F808955B
:00000001FF
