:100000000C942A001895000018950000189500001F
:10001000189500001895000018950000189500002C
:10002000189500001895000018950000189500001C
:10003000189500001895000018950000189500000C
:1000400018950000189500001895000018950000FC
:10005000189500008FE58DBFC8E3E0E24E2E88E0E2
:100060008EBFD8E0F8E05F2EA89584B7082E877F72
:1000700084BF88E1992781BD91BDEEEFF7E0A0E64E
:10008000B0E088278D933197E9F76624A09AD0983D
:10009000D89A709162007F77709362000E94560038
:1000A000009160000A3011F00C944E00A9E3B0E01A
:1000B0000C9100FB81E00EF480E08F93A2E6B0E0AB
:1000C0008C9187FB81E00EF480E09F918923882347
:1000D00011F40C947700A89A709162007068709384
:1000E00062008CE291E00E94A0000C949600A9E3CB
:1000F000B0E00C9100FB81E00EF480E08F93A2E66B
:10010000B0E08C9187FB81E00EF080E09F91892325
:10011000882311F40C949600A898709162007F7760
:10012000709362008CE291E00E94A00008953197E4
:10013000F1F70895689462F80895E89462F80895D4
:10014000EF93FF93EE27E82BE92B31F0E0EDF7E09A
:0E0150003197F1F70197D1F7FF91EF910895E4
:00000001FF
