:100000000C942A001895000018950000189500001F
:10001000189500001895000018950000189500002C
:10002000189500001895000018950000189500001C
:10003000189500001895000018950000189500000C
:1000400018950000189500001895000018950000FC
:10005000189500008FE58DBFC8E3E0E24E2E88E0E2
:100060008EBFD8E0F8E05F2EA89584B7082E877F72
:1000700084BF88E1992781BD91BDEEEFF7E0A0E64E
:10008000B0E088278D933197E9F783E389B980E061
:1000900080BD88E18AB9662486E886B980E487B99C
:1000A000379A0E945D000E947600E1E0F0E00E9435
:1000B000C1000C945100F894FFCF07B1007E00609E
:1000C00007B90E94E402A0E6B0E08D939C93E4E2BD
:1000D000F8E00E94B300A8E0B8E0E0E6F0E00E949B
:1000E000AF030E94AB000E94BA000895ECE1F8E073
:1000F0000E949803E0E6F0E0D190E080FF24002722
:100100000E94FF020E94F500EDE0F0E0A2E6B0E000
:100110000E940804E0E2F8E00E949803E2E6F0E0C2
:100120000E94ED020E943E03EDE0F0E0A2E6B0E0A6
:100130000E940804ECE3F8E00E94B300A8E0B8E0F5
:10014000E2E6F0E0552742E00E944B010E94AB003E
:100150000E94BA000895A8E0B8E08D91882311F0BC
:100160000CD0FBCF08950E949403802D11F005D090
:10017000FACF08958DE001D08AE05D9BFECF8CB967
:10018000089588EE93E00CD03197D9F70895319710
:10019000F1F70895689462F80895E89462F8089574
:1001A000EF93FF93EE27E82BE92B31F0E0EDF7E03A
:1001B0003197F1F70197D1F7FF91EF9108958F9360
:1001C0009F93D216E306F4060FB680E890E88027E6
:1001D00095270FBE89070FB6892B87FD02C091E0D6
:1001E00009260FBE9F918F91089543D0A9F05038F2
:1001F00099F01627050F1BF40AF06DC273C2039520
:100200001BD0FF202AF0BB0CDD1CEE1CFF1C02C023
:1002100003951BF003D0EBC165C25DC2B7FE089524
:1002200090E8B91611F4D0FE08959FEFD91AE90AA3
:10023000F90A09F403950895FF92EF928D2DFF249A
:10024000EE24DD24BB2493E0849F1001829FB00C38
:10025000D11CE21CF31C839FD00CE11C2224F21C55
:100260009A9531F0BD2CDE2CEF2CFF248F91ECCF32
:100270000895652F90E8440F551F5927990F47950A
:100280006078102F90E8FF0C001F0927990FF79452
:10029000107800380895A1D1F4DF17FF03C08DE274
:1002A0008D931127003821F4E0E6F5E00C94DE028E
:1002B0000F3741F4FF2019F4E6E5F5E0F7CFE2E56A
:1002C000F5E0F4CF4A934A934A935A93BA93AA9388
:1002D000BB270F5FE2F4BB27802F0A9588D18D3EA4
:1002E00080F4E0EBF5E0A3E00E94980368DFBB1F19
:1002F000B0FF05C070970E94980377DF3C96AA95DF
:1003000099F7ECEAF5E00E9498036FDF1FC009300F
:1003100038F1033158F10A3130F418E08BE192E9F9
:10032000E4E6F5E02AC00A9562D1E4EAF5E0BFEF21
:10033000A3E00E94980343DFBB1FB0FD05C03896C1
:100340000E94980352DF3C97AA9599F7B095BB0F8E
:1003500098DF039513E08AEF99E0F816090740F457
:1003600013E08BE094E0E8E7F5E007C016E001C099
:10037000B39583E194E2ECE6F5E06A81BF3F19F4BE
:10038000BB2711276260BD836A831C83A881B98162
:1003900060E36D93A883B9836D93081B0195AA242C
:1003A000BB246A816A7F002339F0F694E794D794DE
:1003B000B794A7940A95F7CF19E000270E949803F5
:1003C000CC248FEF74E0AC14B206D306E406F50635
:1003D00030F0AC18B20AD30AE40AF50A21F1881FFA
:1003E0007A9531F05695479537952795C794EBCF79
:1003F000809522D041F0969508F7FE2CED2CDB2C51
:10040000BA2CAA24DBCF25D05D813C812B8170D012
:10041000277021F02BD06CD0E8F301C03CD04CD039
:1004200078D0269608958894881F7A95E9F7809564
:1004300003D049F38827FCCF806360FD06C080337A
:1004400011F0616002C0039561FD8D9360FD1A9506
:10045000089599278E919C9385338E9108F083950A
:100460008A3308F080E38C93C0F70895732F720FDE
:1004700061FF701B0AD01296785019F050F38E93DA
:1004800080E38E937150EAF70895A881B981A70F90
:100490008827B81F089579E061FD700FF6DF48E006
:1004A000431B400F8AF381F399274A9569F38E9194
:1004B000803351F79C93F9CF732F61FF701B7395B5
:1004C000A881B981EA2FFB2F11978191803361FFB9
:1004D00009F08D937A9511F48EE28D9381918823A2
:1004E000C1F7772311F480E38D9388278C930895C7
:1004F000889462FD0895002359F4A881B9818C91F4
:10050000803331F0552321F05395335064600894C3
:1005100008955523E9F085E48D931AF48DE28D93C7
:100520005195652F660F560F5A3010F060E503D0D5
:1005300068E001D0DACF8FEF74E0561708F0561B51
:10054000881F7A9511F06695F8CF809580638D931A
:1005500008954E414E00496E66696E6974790000D7
:10056000302E300000404B4C0020A107000050C34B
:10057000000088130000F4010000003200000005B4
:1005800000008000CCCCCC0C14AE47019CC42000F1
:10059000DC460300E353000063080000D7000000BE
:1005A000150000001CC25367A5D468530024744989
:1005B00015BE9A17CCBC8C2BBD3786350E94940390
:1005C0000D920020D9F70895369A3699FECF369AC3
:1005D0003699FECF84B195B10895D190E190F19014
:1005E0000191089521913191419151910895FF0C0C
:1005F00090E89027110F9795F794092F0895102FE1
:10060000BD2CDE2CEF2CF02E11234AF4B094D094A4
:10061000E094F0949FEFB91AD90AE90AF90A0EE1B9
:10062000FF2039F4FE2CED2CDB2CBB240850C2F744
:1006300059C032F00A95BB0CDD1CEE1CFF1CF9CF33
:100640000E940E01D4CF502F2D2D3E2D4F2D612F06
:1006500008952DEC3CEC4CEC5DE366270FC0BDDF4C
:10066000F2DFDD24EE2490E8F92E0FE307C0BADFB5
:1006700005C02227332740E251E46627552351F174
:10068000002381F1F6DD71F11627005850580894C7
:10069000050B18F407FD03C025C007FD23C04695D0
:1006A00037952795F694E794D79422D0FF202AF027
:1006B000DD0CEE1CFF1C015073F09D2D969548F04B
:1006C000DD203AF4EE202AF491E0D90E9927E91EB4
:1006D000F91E8DCF07C09FE7092FF92A9FEFD92E6A
:1006E000E92E0895DD24EE24FF2400271127089524
:1006F0009F929924AA24BB2488E1D216E306F4062B
:1007000028F0D21AE30AF40A089401C08894991CCC
:10071000AA1CBB1CDD0CEE1CFF1C8A9571F7D92CA2
:10072000EA2CFB2C9F900895C895319600200895DF
:10073000FBDF202DF9DF302DF7DF402DF5DF502DC9
:100740000895000F111F221F331F08950095109563
:10075000209530950F5F1F4F2F4F3F4F0895019108
:1007600010810EC001911191219130810BC0019136
:10077000108117FF05C03FEF2FEF04C00081112744
:100780002227332737FF03C0E1DF8DE28D93CF931C
:10079000DF93CF92DF92EF92AA24BB24CC24DD24F6
:1007A000EE2440E2CAE0DD2755E093E38881890F1B
:1007B00087FD9F7083FD907F891B89935A95A9F7C8
:1007C000C0DFAA1CBB1CCC1CDD1CEE1C4A9551F7DB
:1007D000E894EFE0FF2782910ED0EB30E0F71EF0B7
:1007E00068948A2D0CD088278D93EF90DF90CF905E
:1007F000DF91CF910895982F829501D0892F8F7026
:10080000805D26F0803309F4089568948D930895EF
:1008100094E081918D939A95E1F708950000A040AE
:1008200000008044414443206368616E6E656C2023
:1008300030207661756C6520697320004C647220ED
:0C084000566F6C746167652069732000BE
:00000001FF
